{
  "src/IncrementOracle.sol": {
    "IncrementOracle": {
      "abi": [
        {
          "inputs": [],
          "name": "getIncrement",
          "outputs": [
            {
              "internalType": "uint256",
              "name": "",
              "type": "uint256"
            }
          ],
          "stateMutability": "pure",
          "type": "function"
        }
      ],
      "devdoc": {
        "kind": "dev",
        "methods": {},
        "version": 1
      },
      "evm": {
        "bytecode": {
          "linkReferences": {},
          "object": "6082610038600b82828239805160001a607314602b57634e487b7160e01b600052600060045260246000fd5b30600052607381538281f3fe730000000000000000000000000000000000000000301460806040526004361060335760003560e01c80636ac4691f146038575b600080fd5b600260405190815260200160405180910390f3fea264697066735822122046419488527d9b0ae00f339a2a9115c6a4ce67772ec0e9f7d722f13ef315d1f264736f6c634300080d0033",
          "opcodes": "PUSH1 0x82 PUSH2 0x38 PUSH1 0xB DUP3 DUP3 DUP3 CODECOPY DUP1 MLOAD PUSH1 0x0 BYTE PUSH1 0x73 EQ PUSH1 0x2B JUMPI PUSH4 0x4E487B71 PUSH1 0xE0 SHL PUSH1 0x0 MSTORE PUSH1 0x0 PUSH1 0x4 MSTORE PUSH1 0x24 PUSH1 0x0 REVERT JUMPDEST ADDRESS PUSH1 0x0 MSTORE PUSH1 0x73 DUP2 MSTORE8 DUP3 DUP2 RETURN INVALID PUSH20 0x0 ADDRESS EQ PUSH1 0x80 PUSH1 0x40 MSTORE PUSH1 0x4 CALLDATASIZE LT PUSH1 0x33 JUMPI PUSH1 0x0 CALLDATALOAD PUSH1 0xE0 SHR DUP1 PUSH4 0x6AC4691F EQ PUSH1 0x38 JUMPI JUMPDEST PUSH1 0x0 DUP1 REVERT JUMPDEST PUSH1 0x2 PUSH1 0x40 MLOAD SWAP1 DUP2 MSTORE PUSH1 0x20 ADD PUSH1 0x40 MLOAD DUP1 SWAP2 SUB SWAP1 RETURN INVALID LOG2 PUSH5 0x6970667358 0x22 SLT KECCAK256 CHAINID COINBASE SWAP5 DUP9 MSTORE PUSH30 0x9B0AE00F339A2A9115C6A4CE67772EC0E9F7D722F13EF315D1F264736F6C PUSH4 0x4300080D STOP CALLER "
        },
        "gasEstimates": {
          "creation": {
            "codeDepositCost": "26000",
            "executionCost": "112",
            "totalCost": "26112"
          },
          "external": {
            "getIncrement()": "130"
          }
        },
        "methodIdentifiers": {
          "getIncrement()": "6ac4691f"
        }
      },
      "storageLayout": {
        "storage": [],
        "types": null
      },
      "userdoc": {
        "kind": "user",
        "methods": {},
        "version": 1
      }
    }
  }
}