{
  "_format": "hh-sol-artifact-1",
  "contractName": "Counter",
  "sourceName": "src/Counter.sol",
  "abi": [
    {
      "inputs": [],
      "name": "counter",
      "outputs": [
        {
          "internalType": "uint256",
          "name": "",
          "type": "uint256"
        }
      ],
      "stateMutability": "view",
      "type": "function"
    },
    {
      "inputs": [],
      "name": "increment",
      "outputs": [],
      "stateMutability": "nonpayable",
      "type": "function"
    }
  ],
  "bytecode": "0x608060405234801561001057600080fd5b5061015f806100206000396000f3fe608060405234801561001057600080fd5b50600436106100365760003560e01c806361bc221a1461003b578063d09de08a14610056575b600080fd5b61004460005481565b60405190815260200160405180910390f35b61005e610060565b005b600073__$afba29b198a3993f21def06ffb1287929b$__636ac4691f6040518163ffffffff1660e01b8152600401602060405180830381865af41580156100ab573d6000803e3d6000fd5b505050506040513d601f19601f820116820180604052508101906100cf91906100ea565b9050806000808282546100e29190610103565b909155505050565b6000602082840312156100fc57600080fd5b5051919050565b6000821982111561012457634e487b7160e01b600052601160045260246000fd5b50019056fea26469706673582212206e3cbcdb032c78bf1569f393eb55c8fc3d3f7d8247dab1b9abdcac5b6a853c1b64736f6c634300080d0033",
  "linkReferences": {
    "src/IncrementOracle.sol": {
      "IncrementOracle": [
        {
          "length": 20,
          "start": 132
        }
      ]
    }
  },
  "deployedLinkReferences": {
    "src/IncrementOracle.sol": {
      "IncrementOracle": [
        {
          "length": 20,
          "start": 100
        }
      ]
    }
  }
}