{
  "_format": "hh-sol-artifact-1",
  "contractName": "IncrementOracle",
  "sourceName": "src/IncrementOracle.sol",
  "abi": [
    {
      "inputs": [],
      "name": "getIncrement",
      "outputs": [
        {
          "internalType": "uint256",
          "name": "",
          "type": "uint256"
        }
      ],
      "stateMutability": "pure",
      "type": "function"
    }
  ],
  "bytecode": "0x6082610038600b82828239805160001a607314602b57634e487b7160e01b600052600060045260246000fd5b30600052607381538281f3fe730000000000000000000000000000000000000000301460806040526004361060335760003560e01c80636ac4691f146038575b600080fd5b600260405190815260200160405180910390f3fea264697066735822122046419488527d9b0ae00f339a2a9115c6a4ce67772ec0e9f7d722f13ef315d1f264736f6c634300080d0033",
  "linkReferences": {},
  "deployedLinkReferences": {}
}